:020000040800F2
:1000000000000220392A0008C50B0008C70B0008B1
:10001000C90B0008CB0B0008CD0B00080000000046
:10002000000000000000000000000000CF0B0008EE
:10003000D10B000800000000D30B0008D50B00080E
:10004000852A0008852A0008852A0008852A0008D4
:10005000852A0008852A0008852A0008852A0008C4
:10006000852A0008852A0008852A0008852A0008B4
:10007000852A0008852A0008852A0008852A0008A4
:10008000852A0008852A0008852A0008852A000894
:10009000852A0008852A0008852A0008852A000884
:1000A000852A0008852A0008852A0008852A000874
:1000B000852A0008852A0008852A0008852A000864
:1000C000852A0008852A0008852A0008852A000854
:1000D000852A0008852A0008852A0008852A000844
:1000E000852A0008852A0008852A0008852A000834
:1000F000852A0008852A0008852A0008852A000824
:10010000852A0008852A0008852A0008852A000813
:10011000852A0008852A0008852A0008852A000803
:10012000852A0008852A0008852A0008852A0008F3
:10013000852A0008852A0008852A0008852A0008E3
:10014000852A0008852A0008852A0008852A0008D3
:10015000852A0008852A0008852A0008852A0008C3
:10016000852A0008852A0008852A0008852A0008B3
:10017000852A0008852A0008852A0008852A0008A3
:04018000852A0008C4
:1001840053B94AB9002908BF00281CBF4FF0FF31FA
:100194004FF0FF3000F00CB8ADF1080C6DE904CE5F
:1001A40002F070FCDDF804E0DDE9022304B07047DE
:1001B400704700BF10F8012B11F8013B012A28BF3A
:1001C4009A42F7D0D01A704710B5002486B0CDE912
:1001D4000444114B00941A6B104842F001021A6354
:1001E4001B6B03F0010300932022009B4FF40413C4
:1001F400CDE9012301A90123039301F035F94FF45B
:1002040088131021CDE901130448039401A901F0D6
:100214002BF906B010BD00BF0038024000000240B8
:1002240010B586B01422002101A802F0C9FE0024F2
:100234000E4B00941A6B0E4842F001021A631B6BBA
:1002440003F00103009322464FF48071009B01F0F8
:10025400D7F901234FF48072054801A9CDE90123A0
:10026400CDE9033401F000F906B010BD00380240B6
:1002740000000240024801224FF4807101F0C0B92D
:10028400000002402DE9F8430C4617461E46013A89
:10029400133314319BB292B289B2BDF820908046D8
:1002A40000F026F9B4420BD3BDE8F883484600F0C9
:1002B400F9F80135ADB2BD42F8D30134A4B2F1E787
:1002C4004546F8E710B50B461446024600F010F90F
:1002D4002046BDE8104000F0E5B800002DE9F04FDD
:1002E40087B0A2F120069DF844400293BDF8403047
:1002F40004939DF8483005936308019314F00E03AA
:1003040018BF012303EB141363430393421E4B1ED4
:10031400234402EB54029BB292B200900F46002594
:1003240000F0E6F8DDF80080F6B2A946039BAAB215
:100334009A4206D2182C30D006D80C2C0AD0102C95
:1003440027D007B0BDE8F08F202CFAD1244A02EB65
:10035400861202E0234A04FB062212F805B04FF08D
:10036400000A059B4BFA0AF202F00102E3B9CAB192
:10037400029800F097F809F101035FFA83F9019BF1
:10038400B9FBF3F203FB129212F0FF0222D1914661
:100394001EE0154A02EB0612DFE7144A302101FB86
:1003A4000622DAE70498E4E722B1029A3946404685
:1003B400FFF788FF009B08F101081FFA88F8A8EBF3
:1003C4000302019B9A4205D10137DDF80080BFB2D8
:1003D4000135ABE70AF1010ABAF1080FC1D1F7E719
:1003E4003C370008BC660008CC600008FC4E0008DE
:1003F4002DE9F04F85B004469DF83C80BDF8389057
:100404009DF840A00E461F46551E4FEA580B15F89E
:10041400012F12B905B0BDE8F08F2046CDE9018A5D
:10042400CDF800903B4631465C44FFF757FFA4B239
:10043400EDE7000030B5002387B0CDE90333009326
:1004440005930E4B0E481A6B42F002021A631B6BA3
:1004540003F002030093009B4FF46074032301250F
:1004640001A90493CDE9014500F0FEFF04482A46A2
:10047400214601F0C5F807B030BD00BF0038024086
:100484000004024007B501238DF807001A460DF158
:100494000701034801F030FC03B05DF804FB00BF22
:1004A400B400002007B540BAADF8040001230222CD
:1004B40001A9034801F020FC03B05DF804FB00BF70
:1004C400B400002010B5002204464FF40071074820
:1004D40001F096F82046FFF7D5FFBDE81040034829
:1004E40001224FF4007101F08BB800BF00040240F8
:1004F400F8B507462A200D4616461C46FFF7E2FFCC
:100504003846FFF7CFFF3046FFF7CCFF2B20FFF72D
:10051400D9FF2846FFF7C6FF2046FFF7C3FFBDE813
:10052400F8402C20FFF7CEBF431F5F2B9FBF034B28
:100534001B6800EB4000D863704700BF1001002027
:1005440008B5FFF777FF674800224FF4807101F088
:1005540057F800228021634801F052F8642001F02A
:100564002EFF012280215F4801F04AF8642001F047
:1005740026FF1120FFF7A6FF782001F020FF362088
:10058400FFF7A0FF0020FFF77DFF3A20FFF79AFF57
:100594000520FFF777FFB220FFF794FF0C20FFF749
:1005A40071FF0C20FFF76EFF0020FFF76BFF332075
:1005B400FFF768FF3320FFF765FFB720FFF782FFDF
:1005C4003520FFF75FFFBB20FFF77CFF1920FFF703
:1005D40059FFC020FFF776FF2C20FFF753FFC220FE
:1005E400FFF770FF0120FFF74DFFC320FFF76AFFFD
:1005F4001220FFF747FFC420FFF764FF2020FFF716
:1006040041FFC620FFF75EFF0F20FFF73BFFD0201E
:10061400FFF758FFA420FFF735FFA120FFF732FFB3
:10062400E020FFF74FFFD020FFF72CFF0420FFF757
:1006340029FF0D20FFF726FF1120FFF723FF1320CA
:10064400FFF720FF2B20FFF71DFF3F20FFF71AFFC6
:100654005420FFF717FF4C20FFF714FF1820FFF773
:1006640011FF0D20FFF70EFF0B20FFF70BFF1F20DC
:10067400FFF708FF2320FFF705FFE120FFF722FF24
:10068400D020FFF7FFFE0420FFF7FCFE0C20FFF74D
:10069400F9FE1120FFF7F6FE1320FFF7F3FE2C20DE
:1006A400FFF7F0FE3F20FFF7EDFE4420FFF7EAFEE0
:1006B4005120FFF7E7FE2F20FFF7E4FE1F20FFF78E
:1006C400E1FE1F20FFF7DEFE2020FFF7DBFE2320E4
:1006D400FFF7D8FE2120FFF7F5FEBDE808402920EA
:1006E400FFF7F0BE0004024030B587B014220021A9
:1006F40001A802F065FC0024164B00941A6B1648FE
:1007040042F001021A631B6B03F0010322460093BB
:1007140008210825009B00F073FF012301A90E485E
:10072400CDE90153CDE9034400F09EFE4FF4441398
:10073400042201A908480394CDE9012300F094FEA2
:1007440022462146284600F0F7FC284600F026FD04
:1007540007B030BD003802400000024002480122C8
:10076400082100F04DBF00BF0000024002480022F3
:10077400082100F045BF00BF0000024008B5FFF7A4
:10078400B3FFBDE80840FFF7E9BF00001FB5102222
:100794000021684602F014FC144A154B13604FF410
:1007A40080310023C2E90113114601241361137639
:1007B40082F82030D36208460E4A8A62CB60CC614C
:1007C40081F830304C6100F063FB08B100F080F92F
:1007D4000023064802936946CDE9004400F0FEFB7D
:1007E40008B100F075F904B010BD00BF6800002026
:1007F400002001400100000F10B5044688B0142207
:10080400002103A802F0DCFB2268124B9A421ED19D
:1008140003F58C33002101915A6C0F4842F4807225
:100824005A645A6C02F480720192019A02911A6B12
:1008340042F001021A631B6B03F001030293029B53
:100844000222032303A9CDE9032300F00DFE08B01F
:1008540010BD00BF002001400000024082B00C4BDC
:10086400002100911A6B42F001021A631A6B02F024
:1008740001020092009A01911A6B42F002021A637B
:100884001B6B03F002030193019B02B0704700BF8E
:100894000038024010B594B01422002109A802F0D7
:1008A4008FFB1422002103A802F08AFB00231E4AB6
:1008B4000193116C41F080511164126C02F080526A
:1008C4000192019A194A0293116841F4404111605E
:1008D4001268022402F440420820CDE90E43029239
:1008E4006423CDE91003029A089401211022042301
:1008F40008A8CDE90B121294139300F087FE08B1F7
:1009040072B6FEE70F23CDE903344FF48053CDE9EB
:1009140006300590032103A801F054F808B172B61B
:10092400FEE714B010BD00BF003802400070004064
:1009340030B5574B4FF000628DB09A6000F068FA02
:100944000024FFF7A7FFFFF789FF00F0EBF900F0A1
:10095400C1F800F0ABF9FFF719FF01F003FDFFF751
:1009640033FCFFF75DFCFFF785FCFFF707FF082169
:10097400484801F033FCFFF7E3FD21464FF48C7344
:10098400F02220460094FFF77DFC0A2001F017FDB9
:100994003220FFF7C9FD4048202100F02BFE90BB18
:1009A4004FF4FA7001F00BFD3B48202100F022FEC9
:1009B4000446D8B91825CDE90005384A02904FF607
:1009C400FF738C214820FFF713FD354A00944FF63E
:1009D400FF73BC212020CDE90154FFF709FD314B01
:1009E40001221A7001F094FD01F096FE2E4802F0E7
:1009F400DFFA2E4802F0DCFA4FF4FA7000F034FA11
:100A0400FFF7B4FEF2E72A4BD3E9002305A909A8AE
:100A1400059207938DF818408DF8204002F0EAFA09
:100A240007A909A802F0D4FA224909A8FFF7C2FBD2
:100A3400054698B9204802F0BBFA4FF0E0231D6147
:100A44005D619D6172B61D4A1D4953680B601D4965
:100A540012680B6082F308889847C7E71825CDE928
:100A64000045194A02944FF6FF738C214A20FFF780
:100A7400BFFCCDE90154154A00944FF6FF73BC2125
:100A84002020FFF7B5FC4FF47A7000F0EDF9ADE7E4
:100A940000ED00E01001002000000240306B00086F
:100AA400396B0008B0000020846B00089A6B0008C2
:100AB40000800008496B0008526B000800C0000861
:100AC400C4060020C80600206C6B0008746B000884
:100AD40072B6FEE70F4908B50F4B0B604FF48272F4
:100AE4000023C1E9012302200122C1E904024FF4D9
:100AF4000072C1E90623CB600B624B628B6208462D
:100B04000A23CB6201F09CF818B1BDE80840FFF756
:100B1400DFBF08BDB40000200030014010B504461A
:100B240088B01422002103A802F04AFA2268144B68
:100B34009A4222D103F58433002101915A6C114861
:100B440042F480525A645A6C02F480520192019A1F
:100B540002911A6B42F002021A631B6B03F0020348
:100B64000293029B282202230321CDE903230523B8
:100B7400CDE9061303A900F077FC08B010BD00BF4F
:100B8400003001400004024082B00C4B002100916F
:100B94005A6C42F480425A645A6C02F480420092C5
:100BA400009A01911A6C42F080521A641B6C03F093
:100BB40080530193019B02B0704700BF003802408C
:100BC400FEE7FEE7FEE7FEE7FEE770477047704783
:100BD40008B50D48202100F00DFD88B90B4B1B789A
:100BE40053B10B4A138801339BB2138040F6B732DA
:100BF400934201D9FFF7BAFDBDE8084000F022B9DD
:100C0400034B00221A80F7E700000240B0000020E6
:100C14000C010020034AD2F8883043F47003C2F870
:100C24008830704700ED00E00268094B9A4282B0B8
:100C34000BD100230193074B1A6C42F002021A6491
:100C44001B6C03F002030193019B02B0704700BFC9
:100C5400000400400038024010B5044686B0142257
:100C6400002101A802F0ACF922680D4B9A4214D17C
:100C7400002300930B4B0C481A6B42F002021A63D8
:100C84001B6B03F002030093009B0122022301A9C2
:100C9400CDE90123059300F0E7FB06B010BD00BFCA
:100CA40000040040003802400004024010B5002453
:100CB4008AB01C22214603A8CDE9014402F080F940
:100CC400164A174B13606323C2E9013410464FF4EC
:100CD4009673C2E90334946101F06CF908B1FFF72B
:100CE400F7FE0E4801A9CDE9014401F079FA08B1F3
:100CF400FFF7EEFE00236022CDE9032307480593A6
:100D0400082203A9079301F0ADF908B1FFF7E0FE4B
:100D14000248FFF7A1FF0AB010BD00BF1001002078
:100D2400000400400B4908B50B4B0B604FF4E13253
:100D34000023C1E9012308460C22C1E90333C1E9B8
:100D44000523CB6101F0E0FA18B1BDE80840FFF7D4
:100D5400BFBE08BD580100200010014010B5044674
:100D640088B01422002103A802F02AF92268144B47
:100D74009A4223D103F59433002101915A6C11480E
:100D840042F010025A645A6C02F010020192019A65
:100D940002911A6B42F001021A631B6B03F0010308
:100DA4000293029B4FF4C06202230321CDE9032383
:100DB4000723CDE9061303A900F056FB08B010BDC4
:100DC400001001400000024038B50E4B1A784FF471
:100DD4007A73B3FBF2F30C4A05461068B0FBF3F0E8
:100DE40000F0EAF9044658B90F2D09D802462946FD
:100DF4004FF0FF3000F0A0F9044B20461D6038BDD1
:100E04000120FCE70400002000000020080000206E
:100E140008B50B4B1A6842F400721A601A6842F45F
:100E240080621A601A6842F480721A60032000F02B
:100E340071F90F20FFF7C8FFFFF7A6FE002008BDD9
:100E4400003C0240034A044B11681B780B441360B6
:100E5400704700BF9C01002004000020014B18686B
:100E6400704700BF9C01002038B50446FFF7F6FF29
:100E7400631C1CBF054B1B78054618BFE418FFF71D
:100E8400EDFF431BA342FAD338BD00BF040000208A
:100E940038B50446002800F09B80056C25B9FFF79F
:100EA400ABFC656484F83C50236CDB0600F18E8057
:100EB400236C23F4885323F0020343F002032364D6
:100EC400444B5A6822F440325A605A6861680A43B3
:100ED4005A60236821695A6822F480725A605A68F9
:100EE40042EA01225A605A68A16822F040725A60AC
:100EF4005A680A435A609A68E16822F400629A6068
:100F04009A680A439A603449A26A8A4252D099681C
:100F140021F07061996099680A439A609A68E16A5D
:100F240022F040529A609A680A439A609A6822F0C2
:100F340002029A609A68217E42EA41029A6094F819
:100F44002020002A3ED05A68616A42F400625A6046
:100F54005A6822F460425A605A68013942EA4132BE
:100F64005A60DA6AE16922F47002DA62DA6A0139F3
:100F740042EA0152DA629A6822F400729A609A682C
:100F840094F8301042EA41229A609A68616922F426
:100F940080629A609A68002042EA81229A606064C2
:100FA400236C23F0030343F001032364002384F838
:100FB4003C3038BD9A6822F070629A609A6822F0D8
:100FC4004052B2E75A6822F40062C9E70120EDE713
:100FD4000120EEE7002301400100000FF7B50023D4
:100FE400019390F83C30012B054600F086800123E4
:100FF40080F83C3008682B688E68092884B233D99D
:1010040004EB4402DF681E3A4FF0070C0CFA02FCB2
:1010140027EA0C07DF60DF6806FA02F23A43DA6077
:101024004968062901EB81022DD8596B053A1F2620
:10103400964021EA06015963596B04FA02F20A4305
:101044005A632F4A93420AD1122837D12D4B5A683A
:1010540022F400025A605A6842F480025A60002066
:1010640085F83C0003B0F0BD1A6900EB400C07277B
:1010740007FA0CF722EA07021A611A6906FA0CF653
:1010840016431E61CCE70C294FF01F010BD81E6BD1
:10109400233A914026EA01011963196B04FA02F21A
:1010A4000A431A63CDE7DE6A413A914026EA010118
:1010B400D962D96A94400C43DC62C2E7124B98426D
:1010C40001D01128CBD10F4B5A6822F480025A6008
:1010D4005A6842F400025A600B4B9842BFD10B4B42
:1010E4000B4A1B68B3FBF2F30A2253430193019B9F
:1010F400002BB4D0019B013BF8E70220B2E700BF0C
:1011040000200140002301401200001000000020D4
:1011140040420F000749CA6822F4E0620302120445
:1011240003F4E063120C134343F0BF6343F400334E
:10113400CB60704700ED00E0164B30B5DC68C4F3BB
:101144000224C4F10703251D042B28BF0423062D04
:101154004FF0FF358CBF033C002405FA03F321EA6A
:101164000303A54022EA0502A340002843EA020340
:10117400ACBF00F16040084A4FEA0313B8BF00F067
:101184000F00DBB2AABF00F56140135480F80033AE
:1011940030BD00BF00ED00E014ED00E0002807DBE7
:1011A4004109044A00F01F000123834042F8213022
:1011B400704700BF00E100E00138B0F1807F0BD23E
:1011C4004FF0E023054A5861F02182F823100020F3
:1011D400072298611A6170470120704700ED00E012
:1011E4004FF0E02304281A690CBF42F0040222F0F5
:1011F40004021A6170470000204BDA68D00606D555
:101204001F49CA6942F01002CA611022DA60DA6822
:10121400910606D51A49CA6942F00802CA61202219
:10122400DA60164BDA68520606D51549CA6942F0E7
:101234000402CA614022DA60DA68100606D5104951
:10124400CA6942F00202CA618022DA600B4BDA6892
:10125400D10507D50A49CA6942F00102CA614FF4AF
:101264008072DA60DA68920706D50549CA6942F0E5
:101274002002CA610222DA60704700BF003C0240CB
:10128400A0010020064B1A69002ABFBF054A5A6014
:1012940002F188325A60BABF1869C00F0020704743
:1012A400003C024023016745114B70B500220446FF
:1012B400DA61FFF7D3FD0F4D0646EB68DA030CD471
:1012C400EB68DB0744BF0123EB60E86810F4F970B6
:1012D40007D0FFF791FF012003E0611CEDD00CB9AA
:1012E400032070BDFFF7BAFD801BA042E5D9F7E7E4
:1012F400A0010020003C0240044A137D43F0020395
:1013040013754CF25030FFF7CFBF00BF003C0240D2
:10131400074B1A6922F440721A611A6942F00402F6
:101324001A611A6942EA002242F480321A61704753
:10133400003C02400D4B1A6922F440721A611A698A
:10134400022994BF09024FF440710A431A611A69D1
:1013540022F0F8021A611A6942EAC00040F0020061
:1013640018611A6942F480321A617047003C0240E5
:10137400144B1A6891050FD51A6822F400721A608A
:101384001A6842F400621A601A6822F400621A6051
:101394001A6842F400721A600A4B1A6852050FD593
:1013A4001A6822F480621A601A6842F480521A6041
:1013B4001A6822F480521A601A6842F480621A6031
:1013C400704700BF003C02402DE9F843DFF89480E9
:1013D40098F81830012B05460F463FD001234CF2F4
:1013E400503088F81830FFF75FFF0446A0B94FF07B
:1013F400FF333B602B68012B14D1287CFFF788FF57
:101404004CF25030FFF750FF154A136923F00403E0
:1014140004461361FFF7ACFF002388F81830204618
:10142400BDE8F883AE68DFF83890D5E902231344A9
:10143400B342EFD9297C3046FFF77CFF4CF25030A1
:10144400FFF732FFD9F8103023F0FA03C9F810304F
:1014540010B13E600446DDE70136E6E70224DEE72C
:10146400003C0240A00100202DE9F74FDFF88091F5
:101474005D4A00230D6801249C4004EA0506AC4340
:1014840040F0A3804D68032705F003044FEA4308A6
:1014940007FA08FC671E012F6FEA0C0C34D8876822
:1014A40007EA0C0ECF6807FA08F747EA0E078760C9
:1014B400476827EA060EC5F300179F4047EA0E0760
:1014C4004760C76807EA0C0E8F6807FA08F747EA0F
:1014D4000E07022CC76019D14FEAD30A00EB8A0A1F
:1014E40003F0070BDAF820704FEA8B0B4FF00F0E66
:1014F4000EFA0BFE27EA0E0E0F6907FA0BF747EAFE
:101504000E07CAF8207001E0032CDAD1076804FA48
:1015140008F407EA0C073C4315F4403F046054D038
:1015240000240194D9F8444044F48044C9F8444068
:10153400D9F8444023F0030707F1804704F48044BA
:1015440007F59C37019403F0030C019CD7F808E0DD
:101554004FEA8C0C0F2404FA0CF42EEA040E234CEC
:10156400A04239D004F58064A04237D004F58064E9
:10157400A04235D004F58064A04233D004F58064E1
:10158400A04214BF0724042404FA0CF444EA0E0411
:10159400BC609468F74315F4801F0CBF3C4034438F
:1015A4009460D46815F4001F0CBF3C403443D460ED
:1015B400546815F4003F0CBF3C4034435460146835
:1015C400ED0354BF3C40344314600133102B7FF4CB
:1015D40051AF03B0BDE8F08F0024D5E70124D3E771
:1015E4000224D1E70324CFE7003C0140000002407D
:1015F4000038024000690840003818BF01207047D5
:101604000AB1816170470904FBE700002DE9F34149
:10161400044640B30368DE0710D423689D075BD4F7
:101624002368190700F19D8023685A0700F1BD80E3
:10163400A369002B40F0248100202CE08D4B9A6894
:1016440002F00C02042A07D09A6802F00C02082A5D
:101654000BD15B68590208D5864B1B689A03DCD50D
:101664006368002BD9D1012015E06368814DB3F57F
:10167400803F13D12B6843F480332B60FFF7EEFBDC
:101684007C4E054633689B03C7D4FFF7E7FB401B3A
:101694006428F7D9032002B0BDE8F081B3F5A02F88
:1016A40004D12B6843F480232B60E3E72A6822F4F7
:1016B40080322A602A6822F480222A60002BDDD13D
:1016C400FFF7CCFB06462B689F03A6D5FFF7C6FBA6
:1016D400801B6428F7D9DDE7664B9A6812F00C0F7B
:1016E40007D09A6802F00C02082A11D15B685D02E7
:1016F4000ED4604A1368990702D5E368012BB2D16E
:101704001368216923F0F80343EAC103136087E7F0
:10171400E268594BB2B101221A60FFF79FFB554DA5
:1017240006462B689B0707D52B68226923F0F8032C
:1017340043EAC2032B6073E7FFF790FB801B022888
:10174400EFD9A7E71A60FFF789FB4A4E05463368CD
:101754009F077FF565AFFFF781FB401B0228F6D991
:1017640098E76269444B82B10122C3F8802EFFF7E7
:1017740075FB404E0546736F9B073FF555AFFFF76A
:101784006DFB401B0228F6D984E7C3F8802EFFF7CF
:1017940065FB384E0546736F9F077FF545AFFFF72E
:1017A4005DFB401B0228F6D974E7324B1A6C12F029
:1017B400805228D101921A6C42F080521A641B6C38
:1017C40003F080530193019B01272C4D2B68D8050E
:1017D4001BD5A368274D012B27D12B6F43F00103A1
:1017E4002B67FFF73BFB234E054641F28838336FE6
:1017F4009A0739D5002F3FF41BAF1E4A136C23F010
:101804008053136414E70027DFE72B6843F48073E5
:101814002B60FFF723FB06462B68D905D9D4FFF7C5
:101824001DFB801B0228F7D934E7052B04D12B6F4D
:1018340043F004032B67D0E72A6F22F001022A67E2
:101844002A6F22F004022A67002BCAD1FFF706FB95
:1018540041F2883806462B6F9B07CBD5FFF7FEFA7B
:10186400801B4045F7D915E7FFF7F8FA401B4045C0
:10187400BDD90FE700380240000047420070004025
:10188400374DAA6802F00C02082A3ED0022B354BD1
:101894004FF000021A662BD1FFF7E0FA06462B68D8
:1018A40099011FD4D4E907321343626A43EA8213CD
:1018B400E26A43EA0263A26A5208013A43EA024333
:1018C4006B60284B264D01221A66FFF7C7FA0446BF
:1018D4002B689A013FF5B0AEFFF7C0FA001B02284F
:1018E400F6D9D7E6FFF7BAFA801B0228D7D9D1E692
:1018F400FFF7B4FA04462B689B017FF59DAEFFF712
:10190400ADFA001B0228F6D9C4E6012B3FF4ABAEB6
:101914006B68E26903F4800191427FF4A4AE216A0A
:1019240003F03F028A427FF49EAE616A47F6C072BA
:101934001A40B2EB811F7FF496AEA26A520803F4F8
:101944004031013AB1EB024F7FF48DAEE26A03F00D
:101954007063B3EB026F14BF012000209BE600BF4D
:101964000038024000004742134908B58B6803F071
:101974000C03042B1CD0082B1CD14A684B68496803
:1019840013F4800314BF0D480D48C1F3881118BF28
:10199400002302F03F02A1FB0001FEF7F1FB064B1E
:1019A4005B68C3F3014301335B00B0FBF3F008BD94
:1019B4000248FCE70248FAE70038024040787D011B
:1019C4000024F4002DE9F0410D46044610B901202D
:1019D400BDE8F081434B1A6802F007028A4228D31B
:1019E40021688F072DD4C80740D43E4B1A6802F0F3
:1019F4000702AA4265D8226851076BD4130707D59A
:101A0400394A2169936823F4604343EAC10393602C
:101A1400FFF7AAFF344B354A9B68C3F30313D35C27
:101A2400D840334B1860334B1868FFF7CDF90020CA
:101A3400CEE7CAB21A701B6803F007038B42C6D103
:101A4400CEE7294B11F0040F1EBF9A6842F4E0520E
:101A54009A600E0742BF9A6842F460429A609A689C
:101A6400A06822F0F00202439A60BCE762681E4B51
:101A7400012A1CD11B6813F4003FA8D01A4EB36886
:101A840023F003031343B360FFF7E8F941F2883806
:101A94000746B368626803F00C03B3EB820FA4D06B
:101AA400FFF7DCF9C01B4045F3D9032090E7911EF2
:101AB40001291B6802D813F0007FDEE713F0020F40
:101AC400DBE7EAB21A701B6803F00703AB427FF44A
:101AD4007EAF90E70449E0688B6823F4E053034346
:101AE4008B608BE7003C0240003802405C710008C8
:101AF4000000002008000020044B054A9B68C3F343
:101B04008223D35C034A1068D840704700380240EF
:101B14005471000800000020044B054A9B68C3F37D
:101B24004233D35C034A1068D840704700380240FF
:101B340054710008000000202DE9F3411C461646AC
:101B44000F460546FFF78AF93444241AFFF786F94D
:101B5400244B1B68C3F3CB336343804601932A6849
:101B6400936837EA030301D000202EE0731CF7D0FA
:101B7400FFF774F9A0EB0800A04229D32B685A6838
:101B840022F0E0025A606A68B2F5827F0AD1AA683C
:101B9400B2F5004F02D0B2F5806F03D11A6822F07B
:101BA40040021A60AA6AB2F5005F07D11A6822F4EB
:101BB40000521A601A6842F400521A60012385F830
:101BC4005130002385F85030032002B0BDE8F08185
:101BD400019A019B002A03F1FF33019308BF1446C5
:101BE400BDE700BF0000002037B51346124A156850
:101BF400124AB5FBF2F54FF47A72554342680195E7
:101C0400B2F5827F04460BD10A468021FFF794FF88
:101C140078B1636D43F020036365032003B030BDE6
:101C2400019B33B1019B013B019323689B681B0615
:101C3400F6D40020F2E700BF0000002000366E0159
:101C440010B50446002855D0436A002B4ED1426893
:101C5400B2F5827F00D0C3610023A36294F85130AF
:101C640003F0FF0223B984F850202046FEF756FF04
:101C74002168A068A269022384F851300B6823F01C
:101C840040030B60636800F4044003F4827303436D
:101C9400E06800F400600343206900F0020003439D
:101CA400606900F00100034302F400700343E0693B
:101CB40000F038000343206A00F080000343A06A68
:101CC40000F4005003430B60636A120C03F010032A
:101CD40002F004021A434A60CB6923F40063CB6127
:101CE40000200123606584F8513010BD0023C0E951
:101CF4000433B1E70120F8E72DE9F7431F4690F8D4
:101D04005030012B04460D46904600F0A08001237C
:101D140080F85030FFF7A2F894F85130012B814637
:101D2400D8B240F09280002D61D0B8F1000F5ED09F
:101D3400032384F8513000236365C4E91033A4F805
:101D44003680A363A387E387A36826682563B3F576
:101D5400004FA4F8348007D1336823F04003336084
:101D6400336843F4804333603368E2685B065EBFE4
:101D7400336843F040033360B2F5006F63683FD1CA
:101D840013B1B8F1010F07D135F8023BF3602563B5
:101D9400E38E013B9BB2E386E38E9BB2A3B94A4632
:101DA40039462046FFF720FF00284BD1A36833B9FA
:101DB40001932368DA6801929B680193019B606D2B
:101DC400003818BF012012E022689368980705D5EF
:101DD400236B33F8021BD1602363D9E7FFF73EF886
:101DE400A0EB0900B842D7D3791CD5D00320012336
:101DF40084F85130002384F8503003B0BDE8F083F8
:101E040013B1B8F1010F08D12B783373236B01336D
:101E14002363E38E013B9BB2E386E38E9BB2002BEC
:101E2400BDD023689A68920703D5226B12781A737F
:101E3400ECE7FFF713F8A0EB0900B842EDD37B1CE5
:101E4400EBD0D3E720236365B0E70220CFE702207D
:101E5400D3E70000036A23F0010370B50362036A49
:101E6400446882690D6822F073022A438D6823F066
:101E740002032B430A4DA8420BD1CD6823F008037B
:101E84002B43D1E9055624F44074354323F004036D
:101E94002C43446082614A684263036270BD00BFA0
:101EA40000000140036A23F4807370B50362036A7F
:101EB4004468C2690D6822F073022A438D6823F4D2
:101EC400007343EA05230B4DA8420DD1CD6823F4DA
:101ED400006343EA0523D1E9055624F4405435430D
:101EE40023F4806344EA05144460C2614A68C2630F
:101EF400036270BD00000140036A23F4805330B5CF
:101F04000362036A4468C2690D6822F4E64242EA45
:101F140005228D6823F4005343EA0533064DA84295
:101F240002BF4D6924F4804444EA85144460C261CC
:101F34004A680264036230BD000001401B4A036822
:101F440090420ED0B0F1804F0BD0A2F57C4290426B
:101F540007D002F58062904203D002F5806290427D
:101F640008D14A6823F070031343CA6823F440730A
:101F740013430AE00E4A9042F7D002F58062904281
:101F8400F3D002F580629042EFD04A6923F08003D7
:101F9400134303608B68C3620B688362034B9842EC
:101FA40004BF0B69036301234361704700000140D0
:101FB4000040014010B5044630B390F83D3003F0C2
:101FC400FF021BB980F83C20FEF72EFE0223206896
:101FD40084F83D30211DFFF7B1FF012384F846301A
:101FE400002084F83E3084F83F3084F8403084F890
:101FF400413084F8423084F8433084F8443084F823
:10200400453084F83D3010BD0120FCE7036A23F01D
:10201400100370B50362036A446882690D6822F490
:10202400E64242EA05228D6823F0200343EA0513C1
:102034000B4DA8420DD1CD6823F0800343EA05136C
:10204400D1E9055624F44064354323F0400344EABF
:102054008504446082614A688263036270BD00BF84
:102064000000014038B590F83C30012B04464FD0B5
:102074000120082A84F83C003AD006D8BAB1042AD0
:1020840026D0002384F83C3038BD0C2AF9D12068CE
:10209400FFF732FFC3690A6943F40063C361C3698C
:1020A40023F48063C361C36943EA02232EE02068FA
:1020B400FFF7D0FE83690A6943F0080383618369EB
:1020C40023F0040383618369134383610020D8E709
:1020D4002068FFF79BFF83690A6943F40063836107
:1020E400836923F480638361836943EA0223ECE711
:1020F4002068FFF7D7FEC3690A6943F00803C36188
:10210400C36923F00403C361C3691343C361DDE7F7
:102114000220B9E7036A10B501F01F0101248C40C5
:1021240023EA04030362036A8A401A43026210BD6D
:1021340008B529B990F83E30012B1DD001202EE0BE
:10214400042907D190F83F30012BF7D1022380F8FE
:102154003F3014E0082907D190F84030012BEDD12D
:10216400022380F840300AE090F84130012BE5D199
:10217400022380F8413002E0022380F83E300068F8
:102184000122FFF7C7FF134B984209D0B0F1804FEB
:102194000BD1836803F00703062B15D1002008BD7B
:1021A400436C43F400434364F3E70B4B9842F0D091
:1021B40003F580639842ECD003F580639842E8D03D
:1021C40003F59A339842E4D0036843F001030360B3
:1021D400E4E700BF0000014000040040FFF7A8BF8F
:1021E40030B590F83C30012B02464FF002002AD063
:1021F400136882F83D005C680D68986824F07004E8
:102204002C435C60104CA34212D0B3F1804F0FD02A
:10221400A4F57C44A3420BD004F58064A34207D008
:1022240004F58064A34203D004F59A34A34204D194
:10223400496820F08000014399600123002082F85E
:102244003D3082F83C0030BD000001400268C168A6
:1022540038B5136923F440530B431361054683686F
:102264000069D168034368690343E86921F41641AE
:1022740021F00C0103430B43D3605369A96923F490
:1022840040730B4353611F4B9A4203D003F58063A1
:102294009A4224D1FFF740FCEA691921B2F5004FB4
:1022A400D5E90043A0FB01011CD1DA184FF0000569
:1022B40045EB0503FDF764FF6422B0FBF2F102FB7A
:1022C4001103DB003233B3FBF2F303F007025B00CC
:1022D40002EB011203F4F8731344A36038BDFFF753
:1022E4000BFCD9E79A009B0FFDF74AFF6422B0FB71
:1022F400F2F102FB11031B013233B3FBF2F303EBE4
:102304000113EAE70010014010B5044640B390F809
:102314003D3003F0FF021BB980F83C20FEF71EFDA0
:102324002268242384F83D30D36823F40053D36017
:102334002046FFF78BFF23681A6922F490421A6142
:102344005A6922F02A025A61DA6842F40052DA60C9
:1023540000202023206484F83D3084F83E3010BDF2
:102364000120FCE708B50420FEF73AFF064B1A7873
:102374004FF47A73B3FBF2F3044A1068B0FBF3F042
:10238400BDE80840FEF718BF04000020000000204C
:1023940070B54FF0E02464236569A16958430023B4
:1023A400A2698A42FCD02BBFAE1A5B189B199B1AF8
:1023B40028BF5B18834200D370BD1146F0E738B5DF
:1023C40005460024A54200D838BD4FF47A70FFF7C3
:1023D400DFFF0134F6E70000F0B50A220A4C0023BF
:1023E4001746B1FBF4F606F13005EDB2302D04FBCF
:1023F4001611C554B4FBF7F400D11BB10133013AF3
:10240400EFD1F0BD0023FAE700CA9A3B70B5037818
:10241400302B024604D1437803F0DF03582B0DD050
:10242400002318460A26145C2CB104F0DF054B2D5A
:1024340027D110B19B020B60012070BD8078002869
:10244400FBD0501C02F10A05002310F8012F002ACA
:10245400F1D022F02004413C052C09D9303AD4B201
:10246400092C03D81B01A8421344EED10020E4E751
:10247400A2F14104052C4FEA031394BF373A573AAB
:10248400F1E74D2D03D10028D7D01B05D3E7A4F1E4
:102494003005092DEAD8013006FB03430B28A3F1CC
:1024A4003003C0D1E2E70000054B19680246086812
:1024B40010F020001EBF4B6813700120704700BF4E
:1024C4005801002007B500238DF807300DF10700EF
:1024D400FFF7EAFF0028F9D09DF8070003B05DF884
:1024E40004FB0000034B5860034B1A6813681B0677
:1024F400FCD57047001001405801002008B5411E6A
:1025040011F8010F00B908BDFFF7ECFFF8E7000070
:1025140008B5FEF7B7FE024BF322DA6008BD00BF30
:10252400003C02407FB50023019303210523CDE93C
:10253400031301A8022369460593FEF745FF0038FB
:1025440018BF012007B05DF804FB7FB50023019399
:10255400039001220223694601A8CDE90423FEF772
:1025640033FF003818BF012007B05DF804FB0000FA
:10257400044BDB8A40F6FF709BB21B1A5842584149
:10258400704700BF003C024010B504464CF2503086
:10259400FEF78AFE20B9034BDA8A1443A4B2DC8224
:1025A40010BD00BF003C024013B502230124009477
:1025B400019303230093009BDB0804FA03F3C3F5A0
:1025C40080530193FEF75EFE21460198FFF7DCFF7E
:1025D400FEF792FE002814BF0220204602B010BD70
:1025E400074B1A6922F440721A611A6942F40072A4
:1025F4001A611A6942F001021A610160704700BF52
:10260400003C02402DE9F041DFF83C8004461746C7
:102614000D1F0026BE4202D02368434501D9002085
:102624000FE055F8041F2068FFF7DAFF23681A68E3
:102634002B689A4204D12368043323600136E9E706
:102644000220BDE8F08100BFFBFF07081FB5224A46
:1026540051681068128901AB03C302201A801F4B12
:102664000093FFF772FF1E48FFF748FF1D4800F074
:10267400F7F8041E22DD1C48FFF740FF1B48FFF754
:102684003DFF214601A8FFF7A7FE1948FFF736FFD3
:1026940001A8FFF733FF1748FFF730FF1648FFF78D
:1026A4002DFF164902226846FFF7ACFF20B91448F3
:1026B400FFF724FF04B010BD1248F9E7621C01D1F2
:1026C4001148F5E7A31C01D11048F1E703340CBF0E
:1026D4000F481048ECE700BF736D00080080000845
:1026E400B16B0008C0020020EC6B0008C0010020A0
:1026F4003F6C0008496C0008526C0008496B0008E4
:10270400676C0008AA6C0008E66C0008236D0008DA
:102714003D6D0008536D000810B53548354CFFF782
:10272400EDFE3548FFF7EAFE3448FFF7E7FE34488C
:10273400FFF7E4FE3148FFF7E1FE3248FFF7DEFE23
:102744002B48FFF7DBFE3048FFF7D8FEFFF710FFFA
:10275400002845D1012323602C48FFF7CFFE2C48E5
:10276400FFF7CCFE2B48FFF7C9FE2B48FFF7C6FE48
:10277400236813B12948FFF7C1FE2948FFF7BEFEBD
:10278400FFF7A0FE313803282CD8DFE800F002055B
:10279400091BFFF75BFFDFE72248FFF7AFFEDBE72C
:1027A4004FF0E02300221A615A619A6172B61E4A00
:1027B4001E4953680B601E4912680B6082F3088837
:1027C4009847C9E72368012B0CD1FFF7EDFE0128D8
:1027D40003D00228C0D11748DFE71748FFF78EFE61
:1027E4000023B8E723680BB91448D6E71448D4E7A4
:1027F4007E6D0008C0060020C76D0008106E00083A
:10280400596E0008A26E0008EB6E0008F06E000816
:102814002F6F00086D6F0008AB6F0008E96F0008A8
:10282400277000086570000800C00008C406002076
:10283400C8060020AD7000088E700008D97000082A
:102844001571000838B505460C46013C01D22046F6
:1028540038BD2846FFF728FE0128F6D10020F7E707
:102864002DE9F04FADF2344D0DF110096E4B059387
:1028740000278046C9F800700DF10F0A002426468F
:102884004FF480115046FFF7DDFF40B99AF800205D
:10289400042A32D00FD8012A33D0022A5CD0002F68
:1028A40000F0BC800134062C40F0B8801820FFF7FB
:1028B40019FE182011E002F0DF03412B11D0182A71
:1028C400EDD14FF480115046FFF7BCFF0028E6D14C
:1028D4009AF80030182BE2D10620FFF703FE0020FF
:1028E40007E01820FFF7FEFD1820FFF7FBFD6FF04F
:1028F40002000DF2344DBDE8F08F0620FFF7F2FD23
:10290400BCE74FF0800BBBF1800F8DF8282040F21C
:10291400044208BF8422009200220DF129034FF4DF
:10292400801198180192FFF78DFF05460028B6D153
:10293400019A009B01329A420AABEED19A785978F7
:10294400D243D2B29142AAD1F2B2914207D0152019
:10295400FFF7C8FD2C4693E74FF4806BD3E7002EB6
:1029640044D1DB78002B3BD0304B32460DF12B01A8
:102974001C4611F8010B10B1B2F5807F1CD1002365
:10298400A35406AAC85C202801D0102B18D106A98C
:102994000022CA5406A84946FFF738FDD9F800209A
:1029A400234B9A4210D91820FFF79CFD1820FFF7FB
:1029B40099FD4FF0FF309CE703F8010B0132D8E793
:1029C40002F8010B0133DDE71748FFF7ABFD0620E2
:1029D400FFF788FD4320FFF785FD01360127B9E79E
:1029E4000620FFF77FFDD9F8000082E75A460DF173
:1029F4002B01404600F006FB4FEA9B02414605A826
:102A0400FFF700FE08B90620E5E71820FFF76AFD86
:102A14001820FFF767FD6FF001006AE74320FFF716
:102A240061FD254696E700BF00C00008C0010020F4
:102A340001400700DFF830D0FEF7ECF80B480C49F2
:102A44000C4A9142BEBF50F8043B41F8043BF8E7FE
:102A540009480A4900228842BCBF40F8042B0430CC
:102A6400F9DBFDF765FFFEE7000002208C7100082A
:102A74000000002068000020680000201C080020DE
:102A8400FEE700002DE9F047089D0F4604468C46FA
:102A9400002B48D18A42164661D9B2FA82F34BB16F
:102AA400C3F1200201FA03FC20FA02F29E4042EA3A
:102AB4000C0C9C404FEA164EB7B2BCFBFEF1220C44
:102AC4000EFB11CC42EA0C4201FB07F0904209D9FB
:102AD400B21801F1FF3C80F0EE80904240F2EB80AE
:102AE40002393244121AA4B2B2FBFEF00EFB1022D9
:102AF40044EA024400FB07F7A74209D9341900F15C
:102B0400FF3280F0DA80A74240F2D78034440238A2
:102B140040EA0140E41B00211DB1DC400023C5E96B
:102B24000043BDE8F0878B4206D90DB1C5E9000129
:102B340000210846BDE8F087B3FA83F1002948D1A3
:102B4400BB4202D3824200F20781841A67EB03027C
:102B540001209446002DE4D0C5E9004CE1E7002AA9
:102B640000F09280B2FA82F3002B40F0A8808A1A17
:102B74004FEA164E1FFA86FC0121200CB2FBFEF729
:102B84000EFB172240EA02420CFB07F0904207D9E1
:102B9400B21807F1FF3802D2904200F2E2804746B1
:102BA400121AA4B2B2FBFEF00EFB102244EA024455
:102BB4000CFB00FCA44507D9341900F1FF3202D202
:102BC400A44500F2CB801046A4EB0C0440EA074075
:102BD400A2E7C1F120068B4022FA06FC4CEA030C62
:102BE40007FA01F420FA06F3F7404FEA1C4923439D
:102BF40000FA01F81FFA8CFEB7FBF9F01C0C09FB74
:102C0400107744EA074400FB0EF7A74202FA01F2E8
:102C14000AD91CEB040400F1FF3A80F09B80A74220
:102C240040F2988002386444E41B9FB2B4FBF9F389
:102C340009FB134447EA044403FB0EFEA64509D9E5
:102C44001CEB040403F1FF3780F08280A6457FD992
:102C5400023B644443EA0040A4EB0E04A0FB02E7F9
:102C6400BC427346B94663D360D05DB1B8EB03028E
:102C740064EB090404FA06F622FA01F31E43CC407D
:102C8400C5E9006400214CE76208480842EAC171C2
:102C94000B0C43EA00438AB242EA0342B3FBF6F167
:102CA400E407B4463746B6461F23B0FBF6F0D21B02
:102CB40041EA004161E7614614E7104628E7C3F1A1
:102CC400200120FA01F29E4027FA01F19F403A4385
:102CD4004FEA164E1FFA86FCB1FBFEF70EFB1710E7
:102CE400110C41EA004107FB0CF8884504FA03F48F
:102CF4003AD9711807F1FF3001D288451FD8A1EBEA
:102D04000801B1FBFEF808FB0CF70EFB181192B298
:102D140042EA0142BA422FD2B21808F1FF31C6D2B8
:102D2400BA42C4D2A8F102013244C0E7F0459CD2B1
:102D3400BEEB020367EB0C070138B94695E7A6EB37
:102D440008084144B81EB1FBFEF808FB0CF7DCE7A9
:102D54003B467FE7504667E70846FBE634440238C3
:102D640032E7023F32441BE7A1EB08013846B1FBCE
:102D7400FEF808FB0CF7C8E7414698E7002310B5B6
:102D84000446C0E90033C0E90433836081814366AB
:102D9400C2818361194608225C3000F011F90D4BA1
:102DA40063620D4BA3620D4BE3620D4B23630D4B2A
:102DB40024629C4206D003F16802944202D0D033CC
:102DC4009C4205D104F15800BDE8104000F00FB951
:102DD40010BD00BFD5320008F73200082F330008B9
:102DE40055330008CC060020024A0349034800F08A
:102DF4006BB800BF0C0000206D3200081C000020DE
:102E040041680C4B994210B5044601D000F02CFAED
:102E1400A168094B994202D0204600F025FAE168E6
:102E2400064B994204D02046BDE8104000F01CBA7D
:102E340010BD00BFCC060020340700209C070020F2
:102E44000C4B0D4A0D4810B504211A600022FFF7FF
:102E540095FF0A4B01221C46092103F16800FFF784
:102E64008DFF04F1D0000222BDE810401221FFF7CB
:102E740085BF00BF04080020ED2D0008CC0600200B
:102E8400014800F0B5B800BF09080020014800F06F
:102E9400B0B800BF0908002010B50446FFF7F0FFE2
:102EA400236A1BB1BDE81040FFF7F0BF044B236257
:102EB400044B1B68002BF5D1FFF7C2FFF2E700BFFC
:102EC400052E0008040800202DE9F843074688462B
:102ED40014460026D4E90195B9F1010905D5246801
:102EE400002CF7D13046BDE8F883AB89012B07D914
:102EF400B5F90E30013303D029463846C04706439E
:102F04006835E9E7036A70B5846805460E460BB96F
:102F1400FFF7C2FF636EDB0705D4A389980502D4CB
:102F2400A06D00F065F8A389190702D52369002B69
:102F340035D12146284600F04DFA80B34FF0FF35D5
:102F4400636EDA0705D4A3899B0502D4A06D00F053
:102F540050F8284670BD002B04DAA269934217DBAF
:102F64000A2915D023685A1C22601970A36816F820
:102F7400011F013BA3600029EDD1002B11DA224689
:102F84000A21284600F0E8F90130D7D00A25D7E70E
:102F94002246284600F0E0F90130E7D1CEE7013EB1
:102FA400E4E723685A1C22600A221A70EEE7000044
:102FB400024B01461868FFF7A5BF00BF18000020A8
:102FC40002440346934200D1704703F8011BF9E71A
:102FD40010B50246147813460132002CFAD1013B95
:102FE40011F8012B03F8012F002AF9D110BD704705
:102FF40070477047034611F8012B03F8012B002A90
:10300400F9D170470A44914200F1FF3300D170476F
:1030140010B511F8014B03F8014F9142F9D110BDDD
:1030240070B50F4E0C463168054611B900F0B8FA78
:1030340030602146284600F0B3FA431C03D14FF018
:10304400FF34204670BDC41C24F00304A042F8D011
:10305400211A284600F0A4FA0130F2D1EFE700BFAC
:103064000C0800202DE9F843CD1C25F00305083594
:103074000C2D38BF0C25002D064601DBA94204D9CE
:103084000C2333600020BDE8F883DFF8D48000F01F
:1030940013F9D8F800301C4644BB29463046FFF7E4
:1030A400BFFF431C044658D1D8F800402746002FE0
:1030B40043D1002C4BD023683946304604EB030936
:1030C40000F06EFA814542D121686D1A29463046D6
:1030D400FFF7A6FF01303AD023682B442360D8F8C9
:1030E40000305A6862BBC8F800700FE02268521BB7
:1030F40020D40B2A17D96119A342256018BF59603F
:10310400636808BFC8F8001062514B60304600F095
:10311400D9F804F10B00231D20F00700C21A1CBFCC
:103124001B1AA350AFE76268A3420CBFC8F8002083
:103134005A60EBE723466468AEE73C467F68B6E72F
:103144001A465B68A342FBD100235360DEE70C23DD
:103154003360304600F0B6F894E70560D6E700BF68
:1031640010080020B1F90C202DE9F041160705469E
:103174000C4651D44B68002B02DC0B6C002B49DD50
:10318400E66A002E46D0002312F480522F682B608A
:1031940031D0626DA389590705D56368D21A636B70
:1031A4000BB1236CD21A0023E66A216A2846B04781
:1031B400421CB4F90C3006D129681D2946D8294A85
:1031C400CA40D60742D500226260D904226922602F
:1031D40004D5421C01D12B6803B96065616B2F6073
:1031E400C1B104F14403994202D0284600F01CFA0C
:1031F400002363630EE0216A01232846B047024698
:10320400501CC7D12B68002BC4D01D2B01D0162B0A
:103214001AD12F6000201EE00F69002FFAD0930707
:103224000E6808BF4B690F6018BF0023A6EB0708A0
:103234008B60B8F1000FEDDD216AA66A43463A4679
:103244002846B047002808DCB4F90C3043F04003AA
:10325400A3814FF0FF30BDE8F0810744A8EB0008DC
:10326400E7E700BF0100402038B50B6905460C466E
:1032740013B90025284638BD18B1036A0BB9FFF706
:103284000BFEB4F90C30002BF3D0626ED00704D4DB
:10329400990502D4A06DFFF7ABFE28462146FFF73F
:1032A40061FF636EDA070546E4D4A3899B05E1D484
:1032B400A06DFFF79EFEDDE70148FFF799BE00BF52
:1032C400080800200148FFF794BE00BF080800204A
:1032D40010B50C46B1F90E1000F050F90028ABBF40
:1032E400636DA3891B1823F48053ACBF6365A3816A
:1032F40010BD2DE9F0411F468B89DB0505460C46C0
:10330400164605D5B1F90E100223002200F024F967
:10331400A389B4F90E1023F48053A38132463B46AB
:103324002846BDE8F04100F04BB910B50C46B1F9A0
:103334000E1000F011F9B4F90C30421C0BBF23F449
:10334400805343F48053A381A38118BF606510BDEB
:10335400B1F90E1000F046B9F8B50E46144605460C
:1033640018B1036A0BB9FFF797FDA369A360A3899A
:103374001A0701D5236943B92146284600F02AF8E3
:1033840018B14FF0FF373846F8BD23682269981A00
:103394006369F6B28342374605DC21462846FFF7C7
:1033A40063FF0028EDD1A368013BA36023685A1C86
:1033B40022601E706269431C9A4204D0A389DB0711
:1033C400E1D50A2EDFD121462846FFF74DFF00281C
:1033D400D9D0D6E738B5284B054618680C4618B13D
:1033E400036A0BB9FFF758FDB4F90C301A0721D45E
:1033F400D80607D409222A6043F04003A3814FF082
:10340400FF3030E0590712D5616B41B104F1440338
:10341400994202D0284600F007F900236363002292
:10342400B4F90C3062602269226023F0240343F073
:103434000803A38122693AB99A0501D5180603D570
:103444002146284600F03EF8B4F90C3013F001028E
:103454000AD00022A26062695242A261226942B982
:1034640013F08000C8D138BD990758BF6269A260C3
:10347400F4E70020F7E700BF1800002070B50C4601
:10348400B1F90E10002996B015461E460ADAA18934
:1034940011F0800113D14FF48062002031602A6062
:1034A40016B070BD6A4600F0ADF80028EFDB019954
:1034B40001F47041A1F5005359425941EBE7002151
:1034C4004022EAE78B8973B59E0705460C4607D56B
:1034D40004F14703236023610123636102B070BDDB
:1034E40001AB6A46FFF7CAFF009E28463146FFF744
:1034F400B9FDB4F90C3038B99A05EFD423F00303BD
:1035040043F00203A381E3E743F08003A381019B1B
:103514002060C4E90406002BE0D0B4F90E1028465C
:1035240000F00AF80028D9D0A38923F0030343F05C
:103534000103A381D2E7000038B5064D00230446F9
:1035440008462B6000F0CAF8431C02D12B6803B173
:10355400236038BD1408002038B5074D04460846DA
:10356400114600222A601A4600F0C0F8431C02D11A
:103574002B6803B1236038BD1408002038B5074D0B
:1035840004460846114600222A601A4600F0B6F89E
:10359400431C02D12B6803B1236038BD14080020FA
:1035A40038B5064D0023044608462B6000F0AEF8FB
:1035B400431C02D12B6803B1236038BD14080020DA
:1035C40038B5074D04460846114600222A601A46BB
:1035D40000F0AAF8431C02D12B6803B1236038BD64
:1035E4001408002038B5064D0023044608462B6015
:1035F40000F064F8431C02D12B6803B1236038BD8A
:103604001408002038B5074D002304460846114627
:103614002B6000F05BF8431C02D12B6803B12360DC
:1036240038BD00BF1408002038B50546002941D034
:1036340051F8043C0C1F002BB8BFE418FFF73CFE04
:103644001D4A136833B9636014602846BDE83840E6
:10365400FFF738BEA34208D9206821188B4201BF66
:1036640019685B6809182160EDE71A465B680BB1BD
:10367400A342FAD911685018A0420BD12068014422
:10368400501883421160E0D118685B6853600844A5
:103694001060DAE702D90C232B60D6E720682118E2
:1036A4008B4204BF19685B68636004BF091821601A
:1036B4005460CAE738BD00BF10080020024B5822EE
:1036C4001A604FF0FF30704714080020024B582254
:1036D4001A604FF0FF30704714080020024B582244
:1036E4001A600020704700BF14080020024B5822C3
:1036F4001A604FF0FF30704714080020024B582224
:103704001A604FF0FF30704714080020044A05493E
:103714001368002B08BF0B46184410601846704706
:103724001808002020080020024B58221A604FF08D
:10373400FF30704714080020000000000000000063
:103744000000000000000000000000000000000075
:103754000000000000000000000000000000000065
:103764000000000000000000000000000000000055
:103774000000000000000000000000000000000045
:103784000000C001C001C001C001C001C001C001EE
:1037940080008000800080008000800080000000A5
:1037A4000000000000008001C003C003800100008D
:1037B4000000000000000000000000000000E01C09
:1037C400E01CF01E700E3807180308018400000086
:1037D40000000000000000000000000000000000E5
:1037E40000000000000000000000000000000000D5
:1037F40000000000000000000000000000000000C5
:103804000000000020102010201020102010FE7F47
:10381400FE7F10081008100810081008100810087F
:10382400FE7FFE7F0804080408040804080400005E
:103834000000000000000000000000000000000084
:1038440000010001C0076019103118311839183906
:1038540038017001E001C0038007000F001D00392A
:1038640000311C311C310C310C11180DE007000122
:103874000001000100000000000000000000000042
:10388400000000001C1036186308630C6304630412
:10389400630263026301361D9C37802280634063A8
:1038A400406320632063306310221836081C000034
:1038B4000000000000000000000000000000000004
:1038C40000000000F00098018C018C018C018C0137
:1038D4008C00CC007800183E1C08360832086304BB
:1038E4006304C304C303834306438E26781C000089
:1038F40000000000000000000000000000001C00A8
:103904003C003C003000300010000C0006000000B9
:1039140000000000000000000000000000000000A3
:103924000000000000000000000000000000000093
:103934000000000000000000000000000000004043
:10394400002000100008000C00040006000300031F
:1039540000038001800180018001800180018001D9
:10396400800100030003000300060006000C0008A9
:1039740000100020004000000000000000000200D1
:10398400040008001000300020006000C000C000E7
:10399400C0008001800180018001800180018001DC
:1039A4008001C000C000C000600060003000100052
:1039B40008000400020000000000000000000000F5
:1039C40000000000000000000001800380030001EB
:1039D4001C713C79783DC0070001C007783D3C79F3
:1039E4001C710001800380038001000000000000BE
:1039F40000000000000000000000000000000000C3
:103A040000000000000000000000000100010001AF
:103A14000001000100010001FC7F00010001000120
:103A2400000100010001000100000000000000008E
:103A34000000000000000000000000000000000082
:103A44000000000000000000000000000000000072
:103A54000000000000000000000000000000000062
:103A640000000000000000001C003C003C0030008E
:103A7400300010000C0006000000000000000000F0
:103A84000000000000000000000000000000000032
:103A94000000000000000000FE7F000000000000A5
:103AA4000000000000000000000000000000000012
:103AB4000000000000000000000000000000000002
:103AC40000000000000000000000000000000000F2
:103AD40000000000000000000000000000000000E2
:103AE40000000000000018003C003C00180000002A
:103AF4000000000000000000000000000000004082
:103B0400006000200030001000180008000C0004C1
:103B1400000600020003000180018000C000400094
:103B24006000200030001000180008000C000400A1
:103B34000600020000000000000000000000000079
:103B440000000000C007600C30181830183018202E
:103B54000C600C600C600C600C600C600C600C6001
:103B64000C601820183018303018600CC0070000A2
:103B74000000000000000000000000000000000041
:103B84000000000000018001F80180018001800133
:103B94008001800180018001800180018001800119
:103BA40080018001800180018001C003F81F0000B2
:103BB4000000000000000000000000000000000001
:103BC40000000000E007101C0818043004300C301A
:103BD4000C300030001800080004000200018000CE
:103BE40040002020102008200430FC1FFC1F00008F
:103BF40000000000000000000000000000000000C1
:103C040000000000E003180E0C0C0C180C180C1823
:103C14000018000C0006C003000E0018001000304D
:103C240000300C300C300C100C18180CE0030000A1
:103C34000000000000000000000000000000000080
:103C440000000000000C000E000E000F800E800E1D
:103C5400400E600E200E100E100E080E040E040E00
:103C6400FE7F000E000E000E000E000E000EC07F40
:103C74000000000000000000000000000000000040
:103C840000000000F03FF03F10001000100008009A
:103C94000800C807280C181808100030003000303D
:103CA40000300C300C3004180418080CF003000029
:103CB4000000000000000000000000000000000000
:103CC40000000000800FC0102030103018001800D1
:103CD40008000C008C0F6C183C301C600C600C60ED
:103CE4000C600C601860182030306018C0070000A9
:103CF40000000000000000000000000000000000C0
:103D040000000000F83FF83F1C100C0804080404ED
:103D14000004000200020001000100018000800094
:103D24008000C000C000C000C000C000C00000008F
:103D3400000000000000000000000000000000007F
:103D440000000000E007300C18180C300C300C3068
:103D54001C3038187008E007B007180E0C1C063821
:103D640006300630063006300C18180CE00300004C
:103D7400000000000000000000000000000000003F
:103D840000000000E00318040C080C1806100630AC
:103D940006300630063006380C3C1836F031003058
:103DA4000018001800180C0C0C060C03F00100009D
:103DB40000000000000000000000000000000000FF
:103DC40000000000000000000000000000000000EF
:103DD40000008001C003C003800100000000000057
:103DE4000000000000008001C003C0038001000047
:103DF40000000000000000000000000000000000BF
:103E040000000000000000000000000000000000AE
:103E14000000C000C000000000000000000000001E
:103E240000000000000000000000C000C00080008E
:103E3400800040004000000000000000000000007E
:103E440000000020001000080004000600038001A8
:103E5400C0006000300018000C0018003000600042
:103E6400C0008001000300060004000800100020C8
:103E7400000000000000000000000000000000003E
:103E8400000000000000000000000000000000002E
:103E94000000FE7F00000000000000000000FE7F24
:103EA400000000000000000000000000000000000E
:103EB40000000000000000000000000000000000FE
:103EC400000004000800100020006000C000800111
:103ED40000030006000C001800300018000C000657
:103EE40000038001C00060002000100008000400EE
:103EF40000000000000000000000000000000000BE
:103F04000000C0073018083008600C601C601C609A
:103F14001C600030001C000600018000800080004E
:103F24008000000000008001C003C0038001000085
:103F3400000000000000000000000000000000007D
:103F440000000000C0076018103018200C2F8C4DA2
:103F5400864CC64CC64C664C664466446626662649
:103F64006615CC1C0C40082018303018C00700001F
:103F7400000000000000000000000000000000003D
:103F840000000001C001C001C00140016003200322
:103F9400200320033006100610061006F80F080C44
:103FA400080C080C0C0C0418041806181F7C0000DC
:103FB40000000000000000000000000000000000FD
:103FC40000000000FE07181C18381830183018308C
:103FD40018301818180CF80718181830182018601A
:103FE400186018601860186018301818FE0F000068
:103FF40000000000000000000000000000000000BD
:1040040000000000C0276038103018200C400C401D
:10401400040006000600060006000600060006006E
:1040240006000C400C400C2018303018C00700006B
:10403400000000000000000000000000000000007C
:1040440000000000FE03180E18181830183018303D
:10405400186018601860186018601860186018609C
:1040640018601830183018101818180EFE030000C5
:10407400000000000000000000000000000000003C
:1040840000000000FE3F1830182018601840180087
:1040940018081808180CF80F180C18081808180035
:1040A400180018001840184018201830FE3F00006F
:1040B40000000000000000000000000000000000FC
:1040C40000000000FE7F1870184018C01880180007
:1040D400181018101818F81F1818181018101800AD
:1040E4001800180018001800180018007E000000BE
:1040F40000000000000000000000000000000000BC
:1041040000000000C013701C101018100C200C20AC
:1041140004000600060006000600060006FC063041
:1041240006300C300C30183018303008C00700004E
:10413400000000000000000000000000000000007B
:10414400000000003F7E0C180C180C180C180C18FA
:104154000C180C180C180C18FC1F0C180C180C1844
:104164000C180C180C180C180C180C183F7E0000B6
:10417400000000000000000000000000000000003B
:1041840000000000F81F800180018001800180018F
:104194008001800180018001800180018001800113
:1041A400800180018001800180018001F81F0000EE
:1041B40000000000000000000000000000000000FB
:1041C40000000000E07F000600060006000600066E
:1041D40000060006000600060006000600060006AB
:1041E400000600060006000600060006000600069B
:1041F4000E060E038E01FC0000000000000000000B
:10420400000000007E7C181818081804180618020C
:10421400180198019801D801B80338031807180643
:10422400180E180C181C1818183018307EFC0000D2
:10423400000000000000000000000000000000007A
:10424400000000007E001800180018001800180074
:10425400180018001800180018001800180018009A
:10426400180018001840184018201830FE3F0000AD
:10427400000000000000000000000000000000003A
:10428400000000001FF81C381C381C381C3C343457
:1042940034343434343674326432643264326431E3
:1042A400C431C431C431C430C43084309FFC0000F4
:1042B40000000000000000000000000000000000FA
:1042C400000000001F7C1C103C10341034107410CB
:1042D4006410E410C410C41184118413041304176B
:1042E4000416041E041C041C041C04181F180000DB
:1042F40000000000000000000000000000000000BA
:1043040000000000C003300C181808100C300C30EA
:104314000660066006600660066006600660066069
:1043240006600C200C3008101818300CC003000074
:104334000000000000000000000000000000000079
:1043440000000000FE0F181818301860186018607C
:104354001860186018301818F80F180018001800A2
:104364001800180018001800180018007E0000003B
:104374000000000000000000000000000000000039
:1043840000000000C003300C18180C100C300C2076
:1043940006600660066006600660066006600660E9
:1043A4000660E4612C331C321816300EC007004C32
:1043B400007C003800000000000000000000000045
:1043C40000000000FE07181C183818301830183088
:1043D40018301818180CF80798031803180718064B
:1043E4001806180E180C180C181C18187E780000E3
:1043F40000000000000000000000000000000000B9
:1044040000000000E027303818300C200C200C008D
:104414000C0018007800E003800F001E00380070C4
:10442400006004600460086018303818C80F000089
:104434000000000000000000000000000000000078
:1044440000000000FC3F8C21846182418241800194
:104454008001800180018001800180018001800150
:10446400800180018001800180018001E00700005B
:104474000000000000000000000000000000000038
:10448400000000003F7C0C100C100C100C100C10E1
:104494000C100C100C100C100C100C100C100C1038
:1044A4000C100C100C100C1008083804E003000069
:1044B40000000000000000000000000000000000F8
:1044C400000000003EF8182018201820301030108A
:1044D40030103010600860086008E00CC004C004AC
:1044E400C0048003800380038003000100010000F6
:1044F40000000000000000000000000000000000B8
:1045040000000000DFF38661862186218C210C21C6
:104514008C238C138C138C134C1358125816580E6E
:10452400380E380E380E300C10041004100400003D
:104534000000000000000000000000000000000077
:10454400000000007E3E1808380830043004700271
:104554006002E001C001C001800180034003400704
:1045640020062006100C100C081808183E7C0000C9
:104574000000000000000000000000000000000037
:10458400000000007E7C1C10181018083008300C45
:10459400700460046002C002C002C0018001800196
:1045A400800180018001800180018001E00700001A
:1045B40000000000000000000000000000000000F7
:1045C40000000000F83F18180818040C040E000638
:1045D4000007000380038001C001C000E000600008
:1045E40070003000382018201C100C18FE1F00002A
:1045F4000000000000000000000000000000C03FB8
:1046040040004000400040004000400040004000A6
:104614004000400040004000400040004000400096
:104624004000400040004000400040004000400086
:104634004000C03F00000000000000000000000037
:10464400000008001800180010003000200060006E
:1046540060004000C0008000800180010001000370
:104664000002000600060004000C000800180018F0
:104674000010003000200000000000000000FC03D7
:104684000002000200020002000200020002000216
:104694000002000200020002000200020002000206
:1046A40000020002000200020002000200020002F6
:1046B4000002FC030000000000000000000080076E
:1046C400C0062008101000000000000000000000D8
:1046D40000000000000000000000000000000000D6
:1046E40000000000000000000000000000000000C6
:1046F40000000000000000000000000000000000B6
:1047040000000000000000000000000000000000A5
:104714000000000000000000000000000000000095
:104724000000000000000000000000000000000085
:10473400000000000000FFFF0000000000007800FF
:10474400C0000001000000000000000000000000A4
:104754000000000000000000000000000000000055
:104764000000000000000000000000000000000045
:104774000000000000000000000000000000000035
:104784000000000000000000000000000000000025
:104794000000F00318060C0C0C0C000C800F700CBD
:1047A4001C0C0C0C060C060C064C0C4FF8380000C4
:1047B40000000000000000000000000000000000F5
:1047C400000010001E00180018001800180018003F
:1047D4001800180FD818383038601860186018603E
:1047E400186018601860182038307818C80700005E
:1047F40000000000000000000000000000000000B5
:1048040000000000000000000000000000000000A4
:104814000000C007700C181818180C180C000C00B5
:104824000C000C000C20182018103008C0070000E1
:104834000000000000000000000000000000000074
:1048440000000010001E00180018001800180018BE
:104854000018E01B301C181818180C180C180C1829
:104864000C180C180C180818181C307AE0090000F1
:104874000000000000000000000000000000000034
:104884000000000000000000000000000000000024
:104894000000C007300C181808100C300C30FC3F16
:1048A4000C000C000C00182018107018C007000031
:1048B40000000000000000000000000000000000F4
:1048C40000000000003E80C380C0C0C0C000C00023
:1048D400C000FC1FC000C000C000C000C000C00079
:1048E400C000C000C000C000C000C000F80F00003D
:1048F40000000000000000000000000000000000B4
:1049040000000000000000000000000000000000A3
:104914000000C077306C10181818181818181018E0
:10492400300CF00718001800F00FF03F08700C600E
:104934000C600C603838E00F00000000000000003C
:10494400000010001E0018001800180018001800BD
:104954001800980FD818383018301830183018301C
:104964001830183018301830183018307EFC000019
:104974000000000000000000000000000000000033
:10498400000000008003800380030000000000009A
:104994000001F80180018001800180018001800113
:1049A400800180018001800180018001F81F0000E6
:1049B40000000000000000000000000000000000F3
:1049C400000000000038003800380000000000003B
:1049D4000010801F00180018001800180018001894
:1049E4000018001800180018001800180018001803
:1049F4000018180C1806F003000000000000000066
:104A0400000010001E0018001800180018001800FC
:104A14001800183E180C1806180318019801D8013C
:104A2400380318071806180C181C18187E7C000088
:104A34000000000000000000000000000000000072
:104A440000000001F80180018001800180018001E3
:104A5400800180018001800180018001800180014A
:104A6400800180018001800180018001F81F000025
:104A74000000000000000000000000000000000032
:104A84000000000000000000000000000000000022
:104A94000800EE1C9C338C318C318C318C318C3180
:104AA4008C318C318C318C318C318C31DE7B00003B
:104AB40000000000000000000000000000000000F2
:104AC40000000000000000000000000000000000E2
:104AD40010001E0FD818383018301830183018301D
:104AE4001830183018301830183018307EFC000098
:104AF40000000000000000000000000000000000B2
:104B040000000000000000000000000000000000A1
:104B14000000C007701C103018300C600C600C6072
:104B24000C600C600C60183018303018C00700009E
:104B34000000000000000000000000000000000071
:104B44000000000000000000000000000000000061
:104B540010009E0F5818383018201860186018601C
:104B640018601860186018303830781898071800E2
:104B74001800180018007E0000000000000000006B
:104B84000000000000000000000000000000000021
:104B94000000C023303C183818300C300C300C3076
:104BA4000C300C300C3008301838303CE033003016
:104BB40000300030003000FC000000000000000065
:104BC40000000000000000000000000000000000E1
:104BD40060007E3C60666061E000E00060006000B0
:104BE400600060006000600060006000FE0700007C
:104BF40000000000000000000000000000000000B1
:104C040000000000000000000000000000000000A0
:104C14000000E02730381830182018007000E00336
:104C2400800F001C043004300C301C18EC0F000002
:104C34000000000000000000000000000000000070
:104C44000000000000000000800080008000C00020
:104C5400E000FC1FC000C000C000C000C000C000D5
:104C6400C000C000C000C020C0208011000F0000A0
:104C74000000000000000000000000000000000030
:104C84000000000000000000000000000000000020
:104C940010201E3C183018301830183018301830D6
:104CA4001830183018301830183830F4E013000079
:104CB40000000000000000000000000000000000F0
:104CC40000000000000000000000000000000000E0
:104CD40000007E3C181818083808300430047002AC
:104CE40060026002E001C001C001C0008000000059
:104CF40000000000000000000000000000000000B0
:104D0400000000000000000000000000000000009F
:104D14000000DFF78E630C238C238C2398139813E5
:104D240058165816700E700E700E200420040000E1
:104D3400000000000000000000000000000000006F
:104D4400000000000000000000000000000000005F
:104D54000000FC3E70087004E004C002C00180033F
:104D6400800340076006200C100C18183E7E0000DB
:104D7400000000000000000000000000000000002F
:104D8400000000000000000000000000000000001F
:104D940000007E7C181818083008300830046004BD
:104DA4006004C002C002C002800180018001800052
:104DB400800080004C003C00000000000000000067
:104DC40000000000000000000000000000000000DF
:104DD4000000FC1F0C0C040E040600038003800179
:104DE400C000E0007020302038301C18FC1F000088
:104DF400000000000000000000000000000000307F
:104E0400000800040004000400040004000400047A
:104E140000040004000400028001000200040004F5
:104E2400000400040004000400040004000400045E
:104E3400000400080030000000010001000100012E
:104E44000001000100010001000100010001000156
:104E54000001000100010001000100010001000146
:104E64000001000100010001000100010001000136
:104E740000010001000100010000000000000C001E
:104E8400100020002000200020002000200020002E
:104E9400200020002000400080014000200020006D
:104EA40020002000200020002000200020002000FE
:104EB400200010000C00000000003800C4008640F0
:104EC40002610022001C000000000000000000003D
:104ED40000000000000000000000000000000000CE
:104EE40000000000000000000000000000000000BE
:104EF40000000000000000000000000000000000AE
:104F0400000000000000000000000000000000009D
:104F1400000000000000000000000000000000008D
:104F2400000000000000000000000000000000007D
:104F3400600060006000600060006000600040008D
:104F4400200020002000000000000000600060003D
:104F54006000000000000000000000006006600621
:104F640030039801880044000000000000000000A5
:104F7400000000000000000000000000000000002D
:104F8400000000000000000000000000000000001D
:104F94001002100210021002FE07FE0708020801A8
:104FA400080108010801FE07FE07040104010401C9
:104FB40004010000000000000000000000004000A8
:104FC4004000F00158034C03CC034C00580070001F
:104FD400E000C001C00140034C035C034C034801E2
:104FE400F00040004000000000000000000000004D
:104FF4000E010A01910091009100510051003A0004
:10500400AE03A00250045004480448044804840237
:105014008403000000000000000000000000000005
:1050240038006C006C006C006C006C002C0098075D
:105034001C011A01330133016301E300C308C609EB
:105044003C07000000000000000000000C001C00F1
:105054001000100008000400000000000000000020
:10506400000000000000000000000000000000003C
:105074000000000000000000000000000004000226
:10508400000180008000400040002000200020003B
:10509400200020002000200040004000800080000C
:1050A40000010002000400000000000002000400EF
:1050B40008001000100020002000400040004000C4
:1050C400400040004000400020002000100010007C
:1050D40008000400020000000000000000000000BE
:1050E400000000004000C0004000460C4E0FD001FC
:1050F400F0015E0F460C400040004000000000003C
:10510400000000000000000000000000000000009B
:10511400000000000000400040004000400040004B
:10512400FE0F40004000400040004000000000002E
:10513400000000000000000000000000000000006B
:10514400000000000000000000000000000000005B
:105154000000000000000000000000000C001C0023
:10516400100010000800040000000000000000000F
:10517400000000000000000000000000000000002B
:10518400FE07000000000000000000000000000016
:10519400000000000000000000000000000000000B
:1051A40000000000000000000000000000000000FB
:1051B4000000000000000000000000001C001C00B3
:1051C4001C000000000000000000000000040006B5
:1051D4000002000300010001800080004000400044
:1051E40060002000200010001000080008000C00DF
:1051F400040006000200000000000000000000009F
:105204000000F00098010C030C03060606060606CF
:10521400060606060606060606060C030C03980197
:10522400F00000000000000000000000000000008A
:10523400000040007C0060006000600060006000CE
:10524400600060006000600060006000600060005A
:10525400FC0300000000000000000000000000004B
:105264000000F800840102030603060300030001A2
:105274008001C00060002000100008020402060241
:10528400FE03000000000000000000000000000019
:1052940000007800C6008601860180018001C000FC
:1052A4007000800100010003000306030603860169
:1052B400F8000000000000000000000000000000F2
:1052C400000080018001C001A001A00190018801BB
:1052D400880184018201FE0F800180018001800128
:1052E400E0070000000000000000000000000000D3
:1052F4000000FC0304000400040004000400F400A3
:105304008C010403000300030603060382018401E5
:10531400F800000000000000000000000000000091
:105324000000E00118030C030C0004000600E60171
:1053340016030E0606060606060604060C021803E5
:10534400F000000000000000000000000000000069
:105354000000F8070C0604020401000100018000AB
:105364008000400040004000600060006000600079
:1053740060000000000000000000000000000000C9
:105384000000F8010C030606060606060C021C03C0
:10539400F000C8010C0306060606060606060C0302
:1053A400F001000000000000000000000000000008
:1053B4000000F0000C010C030602060606060606B1
:1053C40006078C0678060006000300030C018C0116
:1053D4007800000000000000000000000000000051
:1053E400000000000000000000000000E000E000F9
:1053F400E00000000000000000000000E000E00009
:10540400E0000000000000000000000000000000B8
:1054140000000000000000000000000060006000C8
:105424000000000000000000000000000000600018
:105434006000400020002000000000000000000088
:105444000004000200018000400020001000080059
:105454000400080010002000400080000001000249
:105464000004000000000000000000000000000034
:10547400000000000000000000000000FE07000023
:1054840000000000FE070000000000000000000013
:105494000000000000000000000000000000000008
:1054A40004000800100020004000800000010002F9
:1054B40000040002000180004000200010000800E9
:1054C40004000000000000000000000000000000D4
:1054D4000000E0031806040C040C0C0C0C0C000770
:1054E400800140004000400000000000E000E000B7
:1054F400E0000000000000000000000000000000C8
:10550400E00018030C02CC0564056605A605B60484
:10551400B604B604B604B602E4010C040C02180383
:10552400F000000000000000000000000000000087
:105534000000600060005000D000900090008800DF
:1055440088010801F80104030403040202020206AC
:105554000F0F000000000000000000000000000029
:105564000000FE008C030C030C030C030C038C01E1
:10557400FC000C030C020C060C060C060C060C03B7
:10558400FE01000000000000000000000000000018
:105594000000E00318030C060C04040406000600D3
:1055A400060006000600060006040C040C0218039C
:1055B400F0000000000000000000000000000000F7
:1055C40000007F008C010C030C030C060C060C0677
:1055D4000C060C060C060C060C060C030C038C01C2
:1055E4007F00000000000000000000000000000038
:1055F4000000FF0306030604060406008600860076
:10560400FE008600860086000600060406040602E4
:10561400FF03000000000000000000000000000084
:105624000000FF0306030604060406008600860045
:10563400FE008600860086000600060006000600BE
:105644001F00000000000000000000000000000037
:105654000000F00018010C020C020402060006000F
:1056640006000600C60F060306030C030C0318030A
:10567400F000000000000000000000000000000036
:1056840000000F0F060606060606060606060606B0
:10569400FE070606060606060606060606060606AD
:1056A4000F0F0000000000000000000000000000D8
:1056B4000000FC03600060006000600060006000A7
:1056C40060006000600060006000600060006000D6
:1056D400FC030000000000000000000000000000C7
:1056E4000000F807C000C000C000C000C000C00037
:1056F400C000C000C000C000C000C000C000C000A6
:10570400C000C60066003C0000000000000000006D
:105714000000CF038601C6004600260016003600AE
:105724002E006E004600C6008600860106010603B0
:105734008F070000000000000000000000000000CF
:1057440000001F0006000600060006000600060012
:10575400060006000600060006000604060406020B
:10576400FF03000000000000000000000000000033
:1057740000000707860386038E038E034E034E0341
:105784004A035A035A033A0332033203320312031D
:105794008707000000000000000000000000000077
:1057A40000008E0F0C021C021C023402340264023C
:1057B40064024402C40284028403840304030403D1
:1057C4001F020000000000000000000000000000B4
:1057D4000000F00098010C030C02060606060606FB
:1057E400060606060606060606060C020C039801C3
:1057F400F0000000000000000000000000000000B5
:105804000000FF0006030606060606060606060650
:105814008603FE00060006000600060006000600D9
:105824001F00000000000000000000000000000055
:105834000000F00098010C030C020606060606069A
:10584400060606060606060676064C02CC039801F2
:10585400F0008007000300000000000000000000CA
:105864000000FF01060306060606060606060603F2
:10587400FE004600C60086008601060306030606EF
:105884000F0E0000000000000000000000000000F7
:105894000000F8020C030602060206000E003C009B
:1058A400F800E003800300070206020606060C0364
:1058B400F0010000000000000000000000000000F3
:1058C4000000FE0762046108610860006000600077
:1058D40060006000600060006000600060006000C4
:1058E400F8010000000000000000000000000000BB
:1058F40000001E070C020C020C020C020C020C022B
:105904000C020C020C020C020C020C020C02180118
:10591400F000000000000000000000000000000093
:1059240000000F070602040104010C010C018800A9
:10593400880098009800500050007000300020004B
:105944002000000000000000000000000000000033
:105954000000F70E62044204460446046402640232
:10596400E402E4029C029C019801980188018800E9
:10597400880000000000000000000000000000009B
:1059840000009E070C01080118019000B00060009F
:10599400200060006000D00090008801080104032A
:1059A4008E0700000000000000000000000000005E
:1059B40000000F0F060404020C0208011801B800CD
:1059C400B000700060006000600060006000600073
:1059D400F8010000000000000000000000000000CA
:1059E4000000FC070C020603020180018000400055
:1059F4004000200020001000180008040C040402D9
:105A0400FE0300000000000000000000E00320008E
:105A14002000200020002000200020002000200082
:105A24002000200020002000200020002000200072
:105A340020002000E003000000000000000000003F
:105A440004000400080008001000100010002000EA
:105A5400200040004000C0008000800000010001E0
:105A64000002000200020004000000007C0040006C
:105A74004000400040004000400040004000400022
:105A84004000400040004000400040004000400012
:105A9400400040007C00000000006000900008010D
:105AA40000000000000000000000000000000000F2
:105AB40000000000000000000000000000000000E2
:105AC40000000000000000000000000000000000D2
